:107800003AC0000055C0000053C0000051C0000045
:107810004FC000004DC000004BC0000049C0000038
:1078200047C0000045C0000043C0000041C0000048
:107830003FC000003DC000003BC0000039C0000058
:1078400037C0000035C0000033C0000031C0000068
:107850002FC000002DC000002BC0000029C0000078
:1078600027C0000025C000004649524D57415245EF
:1078700042494E00000011241FBECFEFD8E0DEBF0A
:10788000CDBF87EF84BF0FB6F894A89580916000B4
:10789000886180936000109260000FBE23E0A0E03A
:1078A000B1E001C01D92A030B207E1F714D1A2C32C
:1078B000A7CF2A9A229A239A259A3B9A80E58CBDD3
:1078C00081E08DBD0895982F8EB59EBD93E09A9569
:1078D000F1F70895FF920F931F93CF93DF93C82F73
:1078E000D42F152F062FF72E87FF08C040E050E059
:1078F000BA0187E7EFDF823000F5CF77439A8FEF49
:10790000E2DF43988FEFDFDF8C2FDDDF8F2DDBDFB2
:10791000802FD9DF812FD7DF8D2FD5DF85E9C034C8
:1079200021F081E0C83409F487E8CDDFCAE08FEFA9
:10793000CADF87FF02C0C150D1F7DF91CF911F91FD
:107940000F91FF9008950F931F93CF93AB01BC014C
:1079500081E5C0DFC82F81111CC08FEFB4DF8E3FDF
:10796000E1F700E011E08FEFAEDFF8010F5F1F4F8E
:10797000808383E000301807B1F78FEFA4DF8FEF2B
:10798000A2DF439A8FEF9FDF8C2FCF911F910F9132
:107990000895C1E0F6CFCF92DF92EF92FF920F935E
:1079A0001F93CF93DF9300D000D0CDB7DEB7FC019B
:1079B0006A017B0180818330C9F001E010E020E0A2
:1079C00030E009831A832B833C8369817A818B8120
:1079D0009C810F900F900F900F90DF91CF911F918E
:1079E0000F91FF90EF90DF90CF90089543855485DD
:1079F00065857685D701C60127E0B695A795979549
:107A000087952A95D1F78C019D01040F151F261F1C
:107A1000371F09831A832B833C83C901B80193DF85
:107A20008111CBCFF601EF77FF27EE0FFF1FEE0F8F
:107A3000FF1FE050FF4F80819181A281B3819C01A3
:107A4000AD015F7029833A834B835C83BECF7BDFBC
:107A5000811111C08091FE029091FF0285359A4AF2
:107A600061F481E020915201309153012634314478
:107A700029F480E0089583E0089582E00895FB01F1
:107A800083E080935700E8958091570080FDFCCFFC
:107A900081E180935700E89508950F921F92FB01B2
:107AA000DA0190E40D901D9081E080935700E895F5
:107AB00032969A95B9F7FB0185E080935700E895D7
:107AC0008091570080FDFCCF81E180935700E895BD
:107AD0001F900F900895CDB7DEB7C155D1090FB6ED
:107AE000F894DEBF0FBECDBFCE0101961C01E1DED2
:107AF000439AFAE0DF2E8FEFE6DEDA94D110FBCF67
:107B000040E050E0BA0180E4E5DE813009F0D6C102
:107B10004AEA51E060E070E088E4DCDE813009F0A0
:107B2000CDC18FEFD0DE8FEFCEDE8FEFCCDE8FEFCB
:107B3000CADE40E050E060E070E489EECBDE811107
:107B400047C1439A8FEFBFDE60E070E0CB017FDF7B
:107B5000813009F044C160E070E0CB01F4DE8111B6
:107B6000ADC180E1EEEBF2E0DE01969601900D9260
:107B70008A95E1F78AA5882309F4A0C18EA59FA55F
:107B8000A8A9B9A92E968CAF9DAFAEAFBFAF2E9767
:107B9000BC01CD015CDF833009F490C181118EC13D
:107BA0002E966CAD7DAD8EAD9FAD2E97CCDE811146
:107BB00085C184E2EDE0F1E0DE01969601900D9240
:107BC0008A95E1F721968CAC9DACAEACBFAC219709
:107BD00089A5823021F4880C991CAA1CBB1CCFA05B
:107BE000D8A4F12CE12C2E964CAC5DAC6EAC7FACE5
:107BF0002E974C0C5D1C6E1C7F1C4C865D866E8621
:107C00007F868EA18C8390E0E9D12FEF280F2B8304
:107C10008AA59BA59F838E8374E0969587957A9518
:107C2000E1F7B0E0A0E049AD5AAD6BAD7CAD4C19C9
:107C30005D096E097F09481B590B6A0B7B0B4819BC
:107C400059096A097B09022E04C0769567955795F4
:107C500047950A94D2F74E5F5F4F6F4F7F4F48872B
:107C600059876A877B87473F5F4F6105710508F435
:107C700025C1F3E0F9832996CCACDDACEEACFFACCA
:107C80002997C88AD98AEA8AFB8A840D951DA61D80
:107C9000B71D880E991EAA1EBB1E8C8A9D8AAE8AAD
:107CA000BF8A1A822601370132E0431A510861085F
:107CB000710804C0440C551C661C771C2A95D2F729
:107CC000480C591C6A1C7B1C88248394912C5401F9
:107CD00081E0A81AB108C301B20135DE81110BC1E0
:107CE0009FE0A922BB24850155E0000F111F5A9582
:107CF000E1F700501F4FD8018C91882309F4FBC095
:107D00001B968C9183FD09C04BE050E068E678E754
:107D1000C80157D1892B09F4EEC08114910409F4EC
:107D2000EAC0411451046104710409F4E4C0C401BF
:107D30008F709927892B09F047C08B81E1E0F0E033
:107D400002C0EE0FFF1F8A95E2F7CF010197940161
:107D500044E0369527954A95E1F782239323FFEF78
:107D60004F1A5F0A6F0A7F0A892B71F5B701A601C6
:107D7000C10111DE6B017C0122E0C216D104E104D5
:107D8000F10408F4B8C088859985AA85BB85C81612
:107D9000D906EA06FB0608F0AEC08B812601370142
:107DA00032E0431A51086108710804C0440C551CA4
:107DB000661C771C8A95D2F78C899D89AE89BF890C
:107DC000480E591E6A1E7B1E8FEF881A980A7FCFB5
:107DD0008FE891E00197F1F700C00000AACE2E963F
:107DE0001CAE1DAE1EAE1FAE2E97D5CE888DFC806C
:107DF000FA94F82289F4882379F0C101CCDD462F6A
:107E0000572FBC01423051056105710508F4D3C0FC
:107E10004E8F5F8F68A379A3D501C4018F0D911D8B
:107E2000A11DB11D62968CAF9DAFAEAFBFAF629783
:107E30008AA39BA3ACA3BDA3BC01CD0184DD8111AA
:107E4000BAC0888D8F5F888FA0E0B1E06096BFAF29
:107E5000AEAF60976096AEADBFAD609790E080E04A
:107E6000F601E80FF91FE4912D91E21331C001965C
:107E700080389105A9F76096EEADFFAD6097E058A8
:107E8000FF4F6096FFAFEEAF60972E968CAD9DAD25
:107E9000AEADBFAD2E9780589F4FAF4FBF4F2E96C0
:107EA0008CAF9DAFAEAFBFAF2E9781159847A105A0
:107EB000B10509F053C0F0E0E0E00995FFEF23E2DF
:107EC00034EFF15020403040E1F700C000000FCE09
:107ED0002E966CAD7DAD8EAD9FAD2E97D0DD6096AC
:107EE0004EAD5FAD60972E966CAD7DAD8EAD9FAD06
:107EF0002E97D3DDC0CFF801848D958DA68DB78DDB
:107F00000097F1E0AF07B10520F08FEF9FEFA0E001
:107F1000B0E0F80184889588B12CA12C54019924F3
:107F20008824428D538D70E060E0482959296A29E0
:107F30007B294E8F5F8F68A379A339E0B695A7950B
:107F4000979587953A95D1F7898F188EF1E0FA8346
:107F50002E961CAE1DAE1EAE1FAE2E972C96CEAC2E
:107F6000DFAC2C97C6019170892B09F073CF8A8101
:107F700080FF22C04E8D5F8D68A179A14A015B010F
:107F800092E0891A9108A108B1088B8104C0880C7D
:107F9000991CAA1CBB1C8A95D2F78C899D89AE8935
:107FA000BF89880E991EAA1EBB1E81149104A104CC
:107FB000B10409F01BCF1A8260961FAE1EAE609707
:107FC00049CFFB01DC0104C08D910590801921F49B
:107FD00041505040C8F7881B990B0895E1E0882371
:107FE00021F4892B31F0E8E0E3958795E8F78E2FAF
:087FF00099270895F894FFCFD2
:040000030000780081
:00000001FF
